{
  "contractName": "Dex",
  "abi": [
    {
      "anonymous": false,
      "inputs": [
        {
          "indexed": true,
          "internalType": "address",
          "name": "previousOwner",
          "type": "address"
        },
        {
          "indexed": true,
          "internalType": "address",
          "name": "newOwner",
          "type": "address"
        }
      ],
      "name": "OwnershipTransferred",
      "type": "event"
    },
    {
      "inputs": [
        {
          "internalType": "bytes32",
          "name": "ticker",
          "type": "bytes32"
        },
        {
          "internalType": "address",
          "name": "tokenAddress",
          "type": "address"
        }
      ],
      "name": "addToken",
      "outputs": [],
      "stateMutability": "nonpayable",
      "type": "function"
    },
    {
      "inputs": [
        {
          "internalType": "address",
          "name": "",
          "type": "address"
        },
        {
          "internalType": "bytes32",
          "name": "",
          "type": "bytes32"
        }
      ],
      "name": "balances",
      "outputs": [
        {
          "internalType": "uint256",
          "name": "",
          "type": "uint256"
        }
      ],
      "stateMutability": "view",
      "type": "function"
    },
    {
      "inputs": [
        {
          "internalType": "uint256",
          "name": "amount",
          "type": "uint256"
        },
        {
          "internalType": "bytes32",
          "name": "ticker",
          "type": "bytes32"
        }
      ],
      "name": "deposit",
      "outputs": [],
      "stateMutability": "nonpayable",
      "type": "function"
    },
    {
      "inputs": [],
      "name": "depositEth",
      "outputs": [],
      "stateMutability": "payable",
      "type": "function"
    },
    {
      "inputs": [],
      "name": "nextOrderId",
      "outputs": [
        {
          "internalType": "uint256",
          "name": "",
          "type": "uint256"
        }
      ],
      "stateMutability": "view",
      "type": "function"
    },
    {
      "inputs": [
        {
          "internalType": "bytes32",
          "name": "",
          "type": "bytes32"
        },
        {
          "internalType": "uint256",
          "name": "",
          "type": "uint256"
        },
        {
          "internalType": "uint256",
          "name": "",
          "type": "uint256"
        }
      ],
      "name": "orderBook",
      "outputs": [
        {
          "internalType": "uint256",
          "name": "id",
          "type": "uint256"
        },
        {
          "internalType": "address",
          "name": "trader",
          "type": "address"
        },
        {
          "internalType": "enum Dex.Side",
          "name": "side",
          "type": "uint8"
        },
        {
          "internalType": "bytes32",
          "name": "ticker",
          "type": "bytes32"
        },
        {
          "internalType": "uint256",
          "name": "amount",
          "type": "uint256"
        },
        {
          "internalType": "uint256",
          "name": "price",
          "type": "uint256"
        },
        {
          "internalType": "uint256",
          "name": "filled",
          "type": "uint256"
        }
      ],
      "stateMutability": "view",
      "type": "function"
    },
    {
      "inputs": [],
      "name": "owner",
      "outputs": [
        {
          "internalType": "address",
          "name": "",
          "type": "address"
        }
      ],
      "stateMutability": "view",
      "type": "function"
    },
    {
      "inputs": [],
      "name": "renounceOwnership",
      "outputs": [],
      "stateMutability": "nonpayable",
      "type": "function"
    },
    {
      "inputs": [
        {
          "internalType": "uint256",
          "name": "",
          "type": "uint256"
        }
      ],
      "name": "tokenList",
      "outputs": [
        {
          "internalType": "bytes32",
          "name": "",
          "type": "bytes32"
        }
      ],
      "stateMutability": "view",
      "type": "function"
    },
    {
      "inputs": [
        {
          "internalType": "bytes32",
          "name": "",
          "type": "bytes32"
        }
      ],
      "name": "tokenMapping",
      "outputs": [
        {
          "internalType": "bytes32",
          "name": "ticker",
          "type": "bytes32"
        },
        {
          "internalType": "address",
          "name": "tokenAddress",
          "type": "address"
        }
      ],
      "stateMutability": "view",
      "type": "function"
    },
    {
      "inputs": [
        {
          "internalType": "address",
          "name": "newOwner",
          "type": "address"
        }
      ],
      "name": "transferOwnership",
      "outputs": [],
      "stateMutability": "nonpayable",
      "type": "function"
    },
    {
      "inputs": [
        {
          "internalType": "uint256",
          "name": "amount",
          "type": "uint256"
        },
        {
          "internalType": "bytes32",
          "name": "ticker",
          "type": "bytes32"
        }
      ],
      "name": "withdraw",
      "outputs": [],
      "stateMutability": "nonpayable",
      "type": "function"
    },
    {
      "inputs": [
        {
          "internalType": "bytes32",
          "name": "ticker",
          "type": "bytes32"
        },
        {
          "internalType": "enum Dex.Side",
          "name": "side",
          "type": "uint8"
        }
      ],
      "name": "getOrderBook",
      "outputs": [
        {
          "components": [
            {
              "internalType": "uint256",
              "name": "id",
              "type": "uint256"
            },
            {
              "internalType": "address",
              "name": "trader",
              "type": "address"
            },
            {
              "internalType": "enum Dex.Side",
              "name": "side",
              "type": "uint8"
            },
            {
              "internalType": "bytes32",
              "name": "ticker",
              "type": "bytes32"
            },
            {
              "internalType": "uint256",
              "name": "amount",
              "type": "uint256"
            },
            {
              "internalType": "uint256",
              "name": "price",
              "type": "uint256"
            },
            {
              "internalType": "uint256",
              "name": "filled",
              "type": "uint256"
            }
          ],
          "internalType": "struct Dex.Order[]",
          "name": "",
          "type": "tuple[]"
        }
      ],
      "stateMutability": "view",
      "type": "function"
    },
    {
      "inputs": [
        {
          "internalType": "enum Dex.Side",
          "name": "side",
          "type": "uint8"
        },
        {
          "internalType": "bytes32",
          "name": "ticker",
          "type": "bytes32"
        },
        {
          "internalType": "uint256",
          "name": "amount",
          "type": "uint256"
        },
        {
          "internalType": "uint256",
          "name": "price",
          "type": "uint256"
        }
      ],
      "name": "createLimitOrder",
      "outputs": [],
      "stateMutability": "nonpayable",
      "type": "function"
    },
    {
      "inputs": [
        {
          "internalType": "enum Dex.Side",
          "name": "side",
          "type": "uint8"
        },
        {
          "internalType": "bytes32",
          "name": "ticker",
          "type": "bytes32"
        },
        {
          "internalType": "uint256",
          "name": "amount",
          "type": "uint256"
        }
      ],
      "name": "createMarketOrder",
      "outputs": [],
      "stateMutability": "nonpayable",
      "type": "function"
    }
  ],
  "bytecode": "0x608060405260006004553480156200001657600080fd5b50600062000029620000cd60201b60201c565b9050806000806101000a81548173ffffffffffffffffffffffffffffffffffffffff021916908373ffffffffffffffffffffffffffffffffffffffff1602179055508073ffffffffffffffffffffffffffffffffffffffff16600073ffffffffffffffffffffffffffffffffffffffff167f8be0079c531659141344cd1fd0a4f28419497f9722a3daafe3b4186f6b6457e060405160405180910390a350620000d5565b600033905090565b613dc680620000e56000396000f3fe6080604052600436106100e85760003560e01c80638da5cb5b1161008a578063a8d2021a11610059578063a8d2021a146102da578063ba58ea6814610303578063c9630cb014610340578063f2fde38b14610369576100e8565b80638da5cb5b146102205780639776aacf1461024b57806399ec2f1c146102745780639ead72221461029d576100e8565b8063439370b1116100c6578063439370b114610198578063667cb4ba146101a25780636f3b62f9146101e0578063715018a614610209576100e8565b80630bb431b6146100ed5780631f14df69146101305780632a58b3301461016d575b600080fd5b3480156100f957600080fd5b50610114600480360381019061010f919061340b565b610392565b6040516101279796959493929190613938565b60405180910390f35b34801561013c57600080fd5b5061015760048036038101906101529190613305565b61042b565b604051610164919061391d565b60405180910390f35b34801561017957600080fd5b50610182610450565b60405161018f919061391d565b60405180910390f35b6101a0610456565b005b3480156101ae57600080fd5b506101c960048036038101906101c4919061336a565b61054f565b6040516101d7929190613854565b60405180910390f35b3480156101ec57600080fd5b50610207600480360381019061020291906134a9565b610593565b005b34801561021557600080fd5b5061021e611474565b005b34801561022c57600080fd5b506102356115ae565b604051610242919061379c565b60405180910390f35b34801561025757600080fd5b50610272600480360381019061026d9190613393565b6115d7565b005b34801561028057600080fd5b5061029b6004803603810190610296919061345a565b611712565b005b3480156102a957600080fd5b506102c460048036038101906102bf919061350c565b6129ae565b6040516102d19190613839565b60405180910390f35b3480156102e657600080fd5b5061030160048036038101906102fc9190613535565b6129d2565b005b34801561030f57600080fd5b5061032a600480360381019061032591906133cf565b612c8c565b6040516103379190613817565b60405180910390f35b34801561034c57600080fd5b5061036760048036038101906103629190613535565b612e57565b005b34801561037557600080fd5b50610390600480360381019061038b91906132dc565b613080565b005b600560205282600052604060002060205281600052604060002081815481106103ba57600080fd5b906000526020600020906006020160009250925050508060000154908060010160009054906101000a900473ffffffffffffffffffffffffffffffffffffffff16908060010160149054906101000a900460ff16908060020154908060030154908060040154908060050154905087565b6003602052816000526040600020602052806000526040600020600091509150505481565b60045481565b6104d934600360003373ffffffffffffffffffffffffffffffffffffffff1673ffffffffffffffffffffffffffffffffffffffff16815260200190815260200160002060007f455448000000000000000000000000000000000000000000000000000000000081526020019081526020016000205461322990919063ffffffff16565b600360003373ffffffffffffffffffffffffffffffffffffffff1673ffffffffffffffffffffffffffffffffffffffff16815260200190815260200160002060007f4554480000000000000000000000000000000000000000000000000000000000815260200190815260200160002081905550565b60016020528060005260406000206000915090508060000154908060010160009054906101000a900473ffffffffffffffffffffffffffffffffffffffff16905082565b600060018111156105cd577f4e487b7100000000000000000000000000000000000000000000000000000000600052602160045260246000fd5b846001811115610606577f4e487b7100000000000000000000000000000000000000000000000000000000600052602160045260246000fd5b14156106a05761061f818361323f90919063ffffffff16565b600360003373ffffffffffffffffffffffffffffffffffffffff1673ffffffffffffffffffffffffffffffffffffffff16815260200190815260200160002060007f4554480000000000000000000000000000000000000000000000000000000000815260200190815260200160002054101561069b57600080fd5b610777565b6001808111156106d9577f4e487b7100000000000000000000000000000000000000000000000000000000600052602160045260246000fd5b846001811115610712577f4e487b7100000000000000000000000000000000000000000000000000000000600052602160045260246000fd5b14156107765781600360003373ffffffffffffffffffffffffffffffffffffffff1673ffffffffffffffffffffffffffffffffffffffff168152602001908152602001600020600085815260200190815260200160002054101561077557600080fd5b5b5b60006005600085815260200190815260200160002060008660018111156107c7577f4e487b7100000000000000000000000000000000000000000000000000000000600052602160045260246000fd5b81526020019081526020016000209050806040518060e0016040528060045481526020013373ffffffffffffffffffffffffffffffffffffffff168152602001876001811115610840577f4e487b7100000000000000000000000000000000000000000000000000000000600052602160045260246000fd5b8152602001868152602001858152602001848152602001600081525090806001815401808255809150506001900390600052602060002090600602016000909190919091506000820151816000015560208201518160010160006101000a81548173ffffffffffffffffffffffffffffffffffffffff021916908373ffffffffffffffffffffffffffffffffffffffff16021790555060408201518160010160146101000a81548160ff02191690836001811115610927577f4e487b7100000000000000000000000000000000000000000000000000000000600052602160045260246000fd5b0217905550606082015181600201556080820151816003015560a0820151816004015560c08201518160050155505060008082805490501161096a57600061097c565b6001828054905061097b9190613aa1565b5b9050600060018111156109b8577f4e487b7100000000000000000000000000000000000000000000000000000000600052602160045260246000fd5b8660018111156109f1577f4e487b7100000000000000000000000000000000000000000000000000000000600052602160045260246000fd5b1415610eeb575b6000811115610ee657818181548110610a3a577f4e487b7100000000000000000000000000000000000000000000000000000000600052603260045260246000fd5b90600052602060002090600602016004015482600183610a5a9190613aa1565b81548110610a91577f4e487b7100000000000000000000000000000000000000000000000000000000600052603260045260246000fd5b9060005260206000209060060201600401541115610aae57610ee6565b600082600183610abe9190613aa1565b81548110610af5577f4e487b7100000000000000000000000000000000000000000000000000000000600052603260045260246000fd5b90600052602060002090600602016040518060e0016040529081600082015481526020016001820160009054906101000a900473ffffffffffffffffffffffffffffffffffffffff1673ffffffffffffffffffffffffffffffffffffffff1673ffffffffffffffffffffffffffffffffffffffff1681526020016001820160149054906101000a900460ff166001811115610bb9577f4e487b7100000000000000000000000000000000000000000000000000000000600052602160045260246000fd5b6001811115610bf1577f4e487b7100000000000000000000000000000000000000000000000000000000600052602160045260246000fd5b81526020016002820154815260200160038201548152602001600482015481526020016005820154815250509050828281548110610c58577f4e487b7100000000000000000000000000000000000000000000000000000000600052603260045260246000fd5b906000526020600020906006020183600184610c749190613aa1565b81548110610cab577f4e487b7100000000000000000000000000000000000000000000000000000000600052603260045260246000fd5b9060005260206000209060060201600082015481600001556001820160009054906101000a900473ffffffffffffffffffffffffffffffffffffffff168160010160006101000a81548173ffffffffffffffffffffffffffffffffffffffff021916908373ffffffffffffffffffffffffffffffffffffffff1602179055506001820160149054906101000a900460ff168160010160146101000a81548160ff02191690836001811115610d88577f4e487b7100000000000000000000000000000000000000000000000000000000600052602160045260246000fd5b02179055506002820154816002015560038201548160030155600482015481600401556005820154816005015590505080838381548110610df2577f4e487b7100000000000000000000000000000000000000000000000000000000600052603260045260246000fd5b90600052602060002090600602016000820151816000015560208201518160010160006101000a81548173ffffffffffffffffffffffffffffffffffffffff021916908373ffffffffffffffffffffffffffffffffffffffff16021790555060408201518160010160146101000a81548160ff02191690836001811115610ea2577f4e487b7100000000000000000000000000000000000000000000000000000000600052602160045260246000fd5b0217905550606082015181600201556080820151816003015560a0820151816004015560c082015181600501559050508180610edd90613b4c565b925050506109f8565b611454565b600180811115610f24577f4e487b7100000000000000000000000000000000000000000000000000000000600052602160045260246000fd5b866001811115610f5d577f4e487b7100000000000000000000000000000000000000000000000000000000600052602160045260246000fd5b1415611453575b600081111561101f57818181548110610fa6577f4e487b7100000000000000000000000000000000000000000000000000000000600052603260045260246000fd5b90600052602060002090600602016004015482600183610fc69190613aa1565b81548110610ffd577f4e487b7100000000000000000000000000000000000000000000000000000000600052603260045260246000fd5b906000526020600020906006020160040154101561101a5761101f565b610f64565b60008260018361102f9190613aa1565b81548110611066577f4e487b7100000000000000000000000000000000000000000000000000000000600052603260045260246000fd5b90600052602060002090600602016040518060e0016040529081600082015481526020016001820160009054906101000a900473ffffffffffffffffffffffffffffffffffffffff1673ffffffffffffffffffffffffffffffffffffffff1673ffffffffffffffffffffffffffffffffffffffff1681526020016001820160149054906101000a900460ff16600181111561112a577f4e487b7100000000000000000000000000000000000000000000000000000000600052602160045260246000fd5b6001811115611162577f4e487b7100000000000000000000000000000000000000000000000000000000600052602160045260246000fd5b815260200160028201548152602001600382015481526020016004820154815260200160058201548152505090508282815481106111c9577f4e487b7100000000000000000000000000000000000000000000000000000000600052603260045260246000fd5b9060005260206000209060060201836001846111e59190613aa1565b8154811061121c577f4e487b7100000000000000000000000000000000000000000000000000000000600052603260045260246000fd5b9060005260206000209060060201600082015481600001556001820160009054906101000a900473ffffffffffffffffffffffffffffffffffffffff168160010160006101000a81548173ffffffffffffffffffffffffffffffffffffffff021916908373ffffffffffffffffffffffffffffffffffffffff1602179055506001820160149054906101000a900460ff168160010160146101000a81548160ff021916908360018111156112f9577f4e487b7100000000000000000000000000000000000000000000000000000000600052602160045260246000fd5b02179055506002820154816002015560038201548160030155600482015481600401556005820154816005015590505080838381548110611363577f4e487b7100000000000000000000000000000000000000000000000000000000600052603260045260246000fd5b90600052602060002090600602016000820151816000015560208201518160010160006101000a81548173ffffffffffffffffffffffffffffffffffffffff021916908373ffffffffffffffffffffffffffffffffffffffff16021790555060408201518160010160146101000a81548160ff02191690836001811115611413577f4e487b7100000000000000000000000000000000000000000000000000000000600052602160045260246000fd5b0217905550606082015181600201556080820151816003015560a0820151816004015560c08201518160050155905050818061144e90613b4c565b925050505b5b6004600081548092919061146790613b76565b9190505550505050505050565b61147c613255565b73ffffffffffffffffffffffffffffffffffffffff1661149a6115ae565b73ffffffffffffffffffffffffffffffffffffffff16146114f0576040517f08c379a00000000000000000000000000000000000000000000000000000000081526004016114e7906138dd565b60405180910390fd5b600073ffffffffffffffffffffffffffffffffffffffff1660008054906101000a900473ffffffffffffffffffffffffffffffffffffffff1673ffffffffffffffffffffffffffffffffffffffff167f8be0079c531659141344cd1fd0a4f28419497f9722a3daafe3b4186f6b6457e060405160405180910390a360008060006101000a81548173ffffffffffffffffffffffffffffffffffffffff021916908373ffffffffffffffffffffffffffffffffffffffff160217905550565b60008060009054906101000a900473ffffffffffffffffffffffffffffffffffffffff16905090565b6115df613255565b73ffffffffffffffffffffffffffffffffffffffff166115fd6115ae565b73ffffffffffffffffffffffffffffffffffffffff1614611653576040517f08c379a000000000000000000000000000000000000000000000000000000000815260040161164a906138dd565b60405180910390fd5b60405180604001604052808381526020018273ffffffffffffffffffffffffffffffffffffffff16815250600160008481526020019081526020016000206000820151816000015560208201518160010160006101000a81548173ffffffffffffffffffffffffffffffffffffffff021916908373ffffffffffffffffffffffffffffffffffffffff16021790555090505060028290806001815401808255809150506001900390600052602060002001600090919091909150555050565b60018081111561174b577f4e487b7100000000000000000000000000000000000000000000000000000000600052602160045260246000fd5b836001811115611784577f4e487b7100000000000000000000000000000000000000000000000000000000600052602160045260246000fd5b141561181e5780600360003373ffffffffffffffffffffffffffffffffffffffff1673ffffffffffffffffffffffffffffffffffffffff168152602001908152602001600020600084815260200190815260200160002054101561181d576040517f08c379a00000000000000000000000000000000000000000000000000000000081526004016118149061389d565b60405180910390fd5b5b6000806001811115611859577f4e487b7100000000000000000000000000000000000000000000000000000000600052602160045260246000fd5b846001811115611892577f4e487b7100000000000000000000000000000000000000000000000000000000600052602160045260246000fd5b14156118a157600190506118a6565b600090505b600060056000858152602001908152602001600020600083815260200190815260200160002090506000805b8280549050811080156118e457508482105b156126765760006118fe838761325d90919063ffffffff16565b905060006119a985848154811061193e577f4e487b7100000000000000000000000000000000000000000000000000000000600052603260045260246000fd5b906000526020600020906006020160050154868581548110611989577f4e487b7100000000000000000000000000000000000000000000000000000000600052603260045260246000fd5b90600052602060002090600602016003015461325d90919063ffffffff16565b90506000828211156119bd578290506119c1565b8190505b6119d4818661322990919063ffffffff16565b9450611a3381878681548110611a13577f4e487b7100000000000000000000000000000000000000000000000000000000600052603260045260246000fd5b90600052602060002090600602016005015461322990919063ffffffff16565b868581548110611a6c577f4e487b7100000000000000000000000000000000000000000000000000000000600052603260045260246000fd5b9060005260206000209060060201600501819055506000611ae0878681548110611abf577f4e487b7100000000000000000000000000000000000000000000000000000000600052603260045260246000fd5b9060005260206000209060060201600401548361323f90919063ffffffff16565b905060006001811115611b1c577f4e487b7100000000000000000000000000000000000000000000000000000000600052602160045260246000fd5b8b6001811115611b55577f4e487b7100000000000000000000000000000000000000000000000000000000600052602160045260246000fd5b14156120e15780600360003373ffffffffffffffffffffffffffffffffffffffff1673ffffffffffffffffffffffffffffffffffffffff16815260200190815260200160002060007f45544800000000000000000000000000000000000000000000000000000000008152602001908152602001600020541015611bd857600080fd5b611c3b82600360003373ffffffffffffffffffffffffffffffffffffffff1673ffffffffffffffffffffffffffffffffffffffff16815260200190815260200160002060008d81526020019081526020016000205461322990919063ffffffff16565b600360003373ffffffffffffffffffffffffffffffffffffffff1673ffffffffffffffffffffffffffffffffffffffff16815260200190815260200160002060008c815260200190815260200160002081905550611d1281600360003373ffffffffffffffffffffffffffffffffffffffff1673ffffffffffffffffffffffffffffffffffffffff16815260200190815260200160002060007f455448000000000000000000000000000000000000000000000000000000000081526020019081526020016000205461325d90919063ffffffff16565b600360003373ffffffffffffffffffffffffffffffffffffffff1673ffffffffffffffffffffffffffffffffffffffff16815260200190815260200160002060007f4554480000000000000000000000000000000000000000000000000000000000815260200190815260200160002081905550611e5382600360008a8981548110611dc7577f4e487b7100000000000000000000000000000000000000000000000000000000600052603260045260246000fd5b906000526020600020906006020160010160009054906101000a900473ffffffffffffffffffffffffffffffffffffffff1673ffffffffffffffffffffffffffffffffffffffff1673ffffffffffffffffffffffffffffffffffffffff16815260200190815260200160002060008d81526020019081526020016000205461325d90919063ffffffff16565b60036000898881548110611e90577f4e487b7100000000000000000000000000000000000000000000000000000000600052603260045260246000fd5b906000526020600020906006020160010160009054906101000a900473ffffffffffffffffffffffffffffffffffffffff1673ffffffffffffffffffffffffffffffffffffffff1673ffffffffffffffffffffffffffffffffffffffff16815260200190815260200160002060008c815260200190815260200160002081905550611ffe81600360008a8981548110611f52577f4e487b7100000000000000000000000000000000000000000000000000000000600052603260045260246000fd5b906000526020600020906006020160010160009054906101000a900473ffffffffffffffffffffffffffffffffffffffff1673ffffffffffffffffffffffffffffffffffffffff1673ffffffffffffffffffffffffffffffffffffffff16815260200190815260200160002060007f455448000000000000000000000000000000000000000000000000000000000081526020019081526020016000205461322990919063ffffffff16565b6003600089888154811061203b577f4e487b7100000000000000000000000000000000000000000000000000000000600052603260045260246000fd5b906000526020600020906006020160010160009054906101000a900473ffffffffffffffffffffffffffffffffffffffff1673ffffffffffffffffffffffffffffffffffffffff1673ffffffffffffffffffffffffffffffffffffffff16815260200190815260200160002060007f455448000000000000000000000000000000000000000000000000000000000081526020019081526020016000208190555061265f565b60018081111561211a577f4e487b7100000000000000000000000000000000000000000000000000000000600052602160045260246000fd5b8b6001811115612153577f4e487b7100000000000000000000000000000000000000000000000000000000600052602160045260246000fd5b141561265e576121bc82600360003373ffffffffffffffffffffffffffffffffffffffff1673ffffffffffffffffffffffffffffffffffffffff16815260200190815260200160002060008d81526020019081526020016000205461325d90919063ffffffff16565b600360003373ffffffffffffffffffffffffffffffffffffffff1673ffffffffffffffffffffffffffffffffffffffff16815260200190815260200160002060008c81526020019081526020016000208190555061229381600360003373ffffffffffffffffffffffffffffffffffffffff1673ffffffffffffffffffffffffffffffffffffffff16815260200190815260200160002060007f455448000000000000000000000000000000000000000000000000000000000081526020019081526020016000205461322990919063ffffffff16565b600360003373ffffffffffffffffffffffffffffffffffffffff1673ffffffffffffffffffffffffffffffffffffffff16815260200190815260200160002060007f45544800000000000000000000000000000000000000000000000000000000008152602001908152602001600020819055506123d482600360008a8981548110612348577f4e487b7100000000000000000000000000000000000000000000000000000000600052603260045260246000fd5b906000526020600020906006020160010160009054906101000a900473ffffffffffffffffffffffffffffffffffffffff1673ffffffffffffffffffffffffffffffffffffffff1673ffffffffffffffffffffffffffffffffffffffff16815260200190815260200160002060008d81526020019081526020016000205461322990919063ffffffff16565b60036000898881548110612411577f4e487b7100000000000000000000000000000000000000000000000000000000600052603260045260246000fd5b906000526020600020906006020160010160009054906101000a900473ffffffffffffffffffffffffffffffffffffffff1673ffffffffffffffffffffffffffffffffffffffff1673ffffffffffffffffffffffffffffffffffffffff16815260200190815260200160002060008c81526020019081526020016000208190555061257f81600360008a89815481106124d3577f4e487b7100000000000000000000000000000000000000000000000000000000600052603260045260246000fd5b906000526020600020906006020160010160009054906101000a900473ffffffffffffffffffffffffffffffffffffffff1673ffffffffffffffffffffffffffffffffffffffff1673ffffffffffffffffffffffffffffffffffffffff16815260200190815260200160002060007f455448000000000000000000000000000000000000000000000000000000000081526020019081526020016000205461325d90919063ffffffff16565b600360008988815481106125bc577f4e487b7100000000000000000000000000000000000000000000000000000000600052603260045260246000fd5b906000526020600020906006020160010160009054906101000a900473ffffffffffffffffffffffffffffffffffffffff1673ffffffffffffffffffffffffffffffffffffffff1673ffffffffffffffffffffffffffffffffffffffff16815260200190815260200160002060007f45544800000000000000000000000000000000000000000000000000000000008152602001908152602001600020819055505b5b50505050808061266e90613b76565b9150506118d2565b505b600082805490501180156127215750816000815481106126c1577f4e487b7100000000000000000000000000000000000000000000000000000000600052603260045260246000fd5b9060005260206000209060060201600301548260008154811061270d577f4e487b7100000000000000000000000000000000000000000000000000000000600052603260045260246000fd5b906000526020600020906006020160050154145b156129a65760005b6001838054905061273a9190613aa1565b8110156128ed578260018261274f91906139f1565b81548110612786577f4e487b7100000000000000000000000000000000000000000000000000000000600052603260045260246000fd5b90600052602060002090600602018382815481106127cd577f4e487b7100000000000000000000000000000000000000000000000000000000600052603260045260246000fd5b9060005260206000209060060201600082015481600001556001820160009054906101000a900473ffffffffffffffffffffffffffffffffffffffff168160010160006101000a81548173ffffffffffffffffffffffffffffffffffffffff021916908373ffffffffffffffffffffffffffffffffffffffff1602179055506001820160149054906101000a900460ff168160010160146101000a81548160ff021916908360018111156128aa577f4e487b7100000000000000000000000000000000000000000000000000000000600052602160045260246000fd5b02179055506002820154816002015560038201548160030155600482015481600401556005820154816005015590505080806128e590613b76565b915050612729565b5081805480612925577f4e487b7100000000000000000000000000000000000000000000000000000000600052603160045260246000fd5b60019003818190600052602060002090600602016000808201600090556001820160006101000a81549073ffffffffffffffffffffffffffffffffffffffff02191690556001820160146101000a81549060ff0219169055600282016000905560038201600090556004820160009055600582016000905550509055612678565b505050505050565b600281815481106129be57600080fd5b906000526020600020016000915090505481565b80600073ffffffffffffffffffffffffffffffffffffffff166001600083815260200190815260200160002060010160009054906101000a900473ffffffffffffffffffffffffffffffffffffffff1673ffffffffffffffffffffffffffffffffffffffff161415612a79576040517f08c379a0000000000000000000000000000000000000000000000000000000008152600401612a70906138bd565b60405180910390fd5b82600360003373ffffffffffffffffffffffffffffffffffffffff1673ffffffffffffffffffffffffffffffffffffffff1681526020019081526020016000206000848152602001908152602001600020541015612b0c576040517f08c379a0000000000000000000000000000000000000000000000000000000008152600401612b03906138fd565b60405180910390fd5b612b6f83600360003373ffffffffffffffffffffffffffffffffffffffff1673ffffffffffffffffffffffffffffffffffffffff16815260200190815260200160002060008581526020019081526020016000205461325d90919063ffffffff16565b600360003373ffffffffffffffffffffffffffffffffffffffff1673ffffffffffffffffffffffffffffffffffffffff1681526020019081526020016000206000848152602001908152602001600020819055506001600083815260200190815260200160002060010160009054906101000a900473ffffffffffffffffffffffffffffffffffffffff1673ffffffffffffffffffffffffffffffffffffffff1663a9059cbb33856040518363ffffffff1660e01b8152600401612c349291906137ee565b602060405180830381600087803b158015612c4e57600080fd5b505af1158015612c62573d6000803e3d6000fd5b505050506040513d601f19601f82011682018060405250810190612c869190613341565b50505050565b6060600560008481526020019081526020016000206000836001811115612cdc577f4e487b7100000000000000000000000000000000000000000000000000000000600052602160045260246000fd5b8152602001908152602001600020805480602002602001604051908101604052809291908181526020016000905b82821015612e4b57838290600052602060002090600602016040518060e0016040529081600082015481526020016001820160009054906101000a900473ffffffffffffffffffffffffffffffffffffffff1673ffffffffffffffffffffffffffffffffffffffff1673ffffffffffffffffffffffffffffffffffffffff1681526020016001820160149054906101000a900460ff166001811115612dd8577f4e487b7100000000000000000000000000000000000000000000000000000000600052602160045260246000fd5b6001811115612e10577f4e487b7100000000000000000000000000000000000000000000000000000000600052602160045260246000fd5b815260200160028201548152602001600382015481526020016004820154815260200160058201548152505081526020019060010190612d0a565b50505050905092915050565b80600073ffffffffffffffffffffffffffffffffffffffff166001600083815260200190815260200160002060010160009054906101000a900473ffffffffffffffffffffffffffffffffffffffff1673ffffffffffffffffffffffffffffffffffffffff161415612efe576040517f08c379a0000000000000000000000000000000000000000000000000000000008152600401612ef5906138bd565b60405180910390fd5b6001600083815260200190815260200160002060010160009054906101000a900473ffffffffffffffffffffffffffffffffffffffff1673ffffffffffffffffffffffffffffffffffffffff166323b872dd3330866040518463ffffffff1660e01b8152600401612f71939291906137b7565b602060405180830381600087803b158015612f8b57600080fd5b505af1158015612f9f573d6000803e3d6000fd5b505050506040513d601f19601f82011682018060405250810190612fc39190613341565b5061302783600360003373ffffffffffffffffffffffffffffffffffffffff1673ffffffffffffffffffffffffffffffffffffffff16815260200190815260200160002060008581526020019081526020016000205461322990919063ffffffff16565b600360003373ffffffffffffffffffffffffffffffffffffffff1673ffffffffffffffffffffffffffffffffffffffff168152602001908152602001600020600084815260200190815260200160002081905550505050565b613088613255565b73ffffffffffffffffffffffffffffffffffffffff166130a66115ae565b73ffffffffffffffffffffffffffffffffffffffff16146130fc576040517f08c379a00000000000000000000000000000000000000000000000000000000081526004016130f3906138dd565b60405180910390fd5b600073ffffffffffffffffffffffffffffffffffffffff168173ffffffffffffffffffffffffffffffffffffffff16141561316c576040517f08c379a00000000000000000000000000000000000000000000000000000000081526004016131639061387d565b60405180910390fd5b8073ffffffffffffffffffffffffffffffffffffffff1660008054906101000a900473ffffffffffffffffffffffffffffffffffffffff1673ffffffffffffffffffffffffffffffffffffffff167f8be0079c531659141344cd1fd0a4f28419497f9722a3daafe3b4186f6b6457e060405160405180910390a3806000806101000a81548173ffffffffffffffffffffffffffffffffffffffff021916908373ffffffffffffffffffffffffffffffffffffffff16021790555050565b6000818361323791906139f1565b905092915050565b6000818361324d9190613a47565b905092915050565b600033905090565b6000818361326b9190613aa1565b905092915050565b60008135905061328281613d24565b92915050565b60008151905061329781613d3b565b92915050565b6000813590506132ac81613d52565b92915050565b6000813590506132c181613d69565b92915050565b6000813590506132d681613d79565b92915050565b6000602082840312156132ee57600080fd5b60006132fc84828501613273565b91505092915050565b6000806040838503121561331857600080fd5b600061332685828601613273565b92505060206133378582860161329d565b9150509250929050565b60006020828403121561335357600080fd5b600061336184828501613288565b91505092915050565b60006020828403121561337c57600080fd5b600061338a8482850161329d565b91505092915050565b600080604083850312156133a657600080fd5b60006133b48582860161329d565b92505060206133c585828601613273565b9150509250929050565b600080604083850312156133e257600080fd5b60006133f08582860161329d565b9250506020613401858286016132b2565b9150509250929050565b60008060006060848603121561342057600080fd5b600061342e8682870161329d565b935050602061343f868287016132c7565b9250506040613450868287016132c7565b9150509250925092565b60008060006060848603121561346f57600080fd5b600061347d868287016132b2565b935050602061348e8682870161329d565b925050604061349f868287016132c7565b9150509250925092565b600080600080608085870312156134bf57600080fd5b60006134cd878288016132b2565b94505060206134de8782880161329d565b93505060406134ef878288016132c7565b9250506060613500878288016132c7565b91505092959194509250565b60006020828403121561351e57600080fd5b600061352c848285016132c7565b91505092915050565b6000806040838503121561354857600080fd5b6000613556858286016132c7565b92505060206135678582860161329d565b9150509250929050565b600061357d83836136f0565b60e08301905092915050565b61359281613ad5565b82525050565b6135a181613ad5565b82525050565b60006135b2826139b7565b6135bc81856139cf565b93506135c7836139a7565b8060005b838110156135f85781516135df8882613571565b97506135ea836139c2565b9250506001810190506135cb565b5085935050505092915050565b61360e81613af3565b82525050565b61361d81613af3565b82525050565b61362c81613b3a565b82525050565b61363b81613b3a565b82525050565b600061364e6026836139e0565b915061365982613c1d565b604082019050919050565b60006136716014836139e0565b915061367c82613c6c565b602082019050919050565b60006136946014836139e0565b915061369f82613c95565b602082019050919050565b60006136b76020836139e0565b91506136c282613cbe565b602082019050919050565b60006136da6016836139e0565b91506136e582613ce7565b602082019050919050565b60e082016000820151613706600085018261377e565b5060208201516137196020850182613589565b50604082015161372c6040850182613623565b50606082015161373f6060850182613605565b506080820151613752608085018261377e565b5060a082015161376560a085018261377e565b5060c082015161377860c085018261377e565b50505050565b61378781613b30565b82525050565b61379681613b30565b82525050565b60006020820190506137b16000830184613598565b92915050565b60006060820190506137cc6000830186613598565b6137d96020830185613598565b6137e6604083018461378d565b949350505050565b60006040820190506138036000830185613598565b613810602083018461378d565b9392505050565b6000602082019050818103600083015261383181846135a7565b905092915050565b600060208201905061384e6000830184613614565b92915050565b60006040820190506138696000830185613614565b6138766020830184613598565b9392505050565b6000602082019050818103600083015261389681613641565b9050919050565b600060208201905081810360008301526138b681613664565b9050919050565b600060208201905081810360008301526138d681613687565b9050919050565b600060208201905081810360008301526138f6816136aa565b9050919050565b60006020820190508181036000830152613916816136cd565b9050919050565b6000602082019050613932600083018461378d565b92915050565b600060e08201905061394d600083018a61378d565b61395a6020830189613598565b6139676040830188613632565b6139746060830187613614565b613981608083018661378d565b61398e60a083018561378d565b61399b60c083018461378d565b98975050505050505050565b6000819050602082019050919050565b600081519050919050565b6000602082019050919050565b600082825260208201905092915050565b600082825260208201905092915050565b60006139fc82613b30565b9150613a0783613b30565b9250827fffffffffffffffffffffffffffffffffffffffffffffffffffffffffffffffff03821115613a3c57613a3b613bbf565b5b828201905092915050565b6000613a5282613b30565b9150613a5d83613b30565b9250817fffffffffffffffffffffffffffffffffffffffffffffffffffffffffffffffff0483118215151615613a9657613a95613bbf565b5b828202905092915050565b6000613aac82613b30565b9150613ab783613b30565b925082821015613aca57613ac9613bbf565b5b828203905092915050565b6000613ae082613b10565b9050919050565b60008115159050919050565b6000819050919050565b6000819050613b0b82613d10565b919050565b600073ffffffffffffffffffffffffffffffffffffffff82169050919050565b6000819050919050565b6000613b4582613afd565b9050919050565b6000613b5782613b30565b91506000821415613b6b57613b6a613bbf565b5b600182039050919050565b6000613b8182613b30565b91507fffffffffffffffffffffffffffffffffffffffffffffffffffffffffffffffff821415613bb457613bb3613bbf565b5b600182019050919050565b7f4e487b7100000000000000000000000000000000000000000000000000000000600052601160045260246000fd5b7f4e487b7100000000000000000000000000000000000000000000000000000000600052602160045260246000fd5b7f4f776e61626c653a206e6577206f776e657220697320746865207a65726f206160008201527f6464726573730000000000000000000000000000000000000000000000000000602082015250565b7f496e73756666696369656e742062616c616e6365000000000000000000000000600082015250565b7f546f6b656e20646f6573206e6f74206578697374000000000000000000000000600082015250565b7f4f776e61626c653a2063616c6c6572206973206e6f7420746865206f776e6572600082015250565b7f42616c616e6365206e6f742073756666696369656e7400000000000000000000600082015250565b60028110613d2157613d20613bee565b5b50565b613d2d81613ad5565b8114613d3857600080fd5b50565b613d4481613ae7565b8114613d4f57600080fd5b50565b613d5b81613af3565b8114613d6657600080fd5b50565b60028110613d7657600080fd5b50565b613d8281613b30565b8114613d8d57600080fd5b5056fea26469706673582212206d4eeb12b989781074ad13d8d365fdbb89c636f378f98ca0176a1d13abe093af64736f6c63430008040033",
  "immutableReferences": {},
  "source": "pragma solidity 0.8.4;\r\npragma experimental ABIEncoderV2;\r\n\r\nimport \"./wallet.sol\";\r\n\r\ncontract Dex is Wallet {\r\n\r\n    using SafeMath for uint256;\r\n\r\n    enum Side {\r\n        BUY,\r\n        SELL\r\n    } \r\n\r\n    struct Order {\r\n        uint id;\r\n        address trader;\r\n        Side side;\r\n        bytes32 ticker;\r\n        uint amount;\r\n        uint price;\r\n        uint filled;\r\n    }\r\n\r\n    uint public nextOrderId = 0;\r\n\r\n    mapping(bytes32 => mapping(uint => Order[])) public orderBook;\r\n\r\n    function getOrderBook(bytes32 ticker, Side side) view public returns(Order[] memory) {\r\n        return orderBook[ticker][uint(side)];\r\n    }\r\n\r\n    function createLimitOrder(Side side, bytes32 ticker, uint amount, uint price) public {\r\n        if(side == Side.BUY){\r\n            require(balances[msg.sender][\"ETH\"] >= amount.mul(price));\r\n        }\r\n        else if(side == Side.SELL){\r\n            require(balances[msg.sender][ticker] >= amount);\r\n        }\r\n\r\n        Order[] storage orders = orderBook[ticker][uint(side)];\r\n        orders.push(\r\n            Order(nextOrderId, msg.sender, side, ticker, amount, price, 0)\r\n        );\r\n\r\n        //bubble sort\r\n        uint i = orders.length > 0 ? orders.length - 1 : 0;\r\n\r\n        if(side == Side.BUY){\r\n            while(i > 0) {\r\n                if(orders[i - 1].price > orders[i].price) {\r\n                    break;\r\n                } \r\n                Order memory orderToMove = orders[i - 1];\r\n                orders[i - 1] = orders[i];\r\n                orders[i] = orderToMove;\r\n                i--;\r\n            }            \r\n        }\r\n        else if(side == Side.SELL) {\r\n            while(i > 0){\r\n                if(orders[i - 1].price < orders[i].price) {\r\n                    break;\r\n                } \r\n            }\r\n            Order memory orderToMove = orders[i - 1];\r\n            orders[i - 1] = orders[i];\r\n            orders[i] = orderToMove;\r\n            i--;\r\n        }\r\n        nextOrderId++;\r\n    }\r\n\r\n    function createMarketOrder(Side side, bytes32 ticker, uint amount) public {\r\n        if(side == Side.SELL) {\r\n           require(balances[msg.sender][ticker] >= amount, \"Insufficient balance\"); \r\n        }\r\n        \r\n        uint orderBookSide;\r\n\r\n        if(side == Side.BUY) {\r\n            orderBookSide = 1;\r\n        }\r\n        else{\r\n            orderBookSide = 0;\r\n        }\r\n\r\n        Order[] storage orders = orderBook[ticker][orderBookSide];\r\n\r\n        uint totalFilled = 0;\r\n\r\n        for(uint256 i = 0; i < orders.length && totalFilled < amount ; i++) {\r\n            //How much we can fill from order[i]\r\n            //Update totalFilled;\r\n\r\n            uint leftToFill = amount.sub(totalFilled);\r\n            uint availableToFill = orders[i].amount.sub(orders[i].filled); //orders.amount - orders.filled \r\n            uint filled = 0;\r\n\r\n            if(availableToFill > leftToFill) {\r\n                filled = leftToFill; //Fill the entire market order\r\n            }\r\n            else{\r\n                filled = availableToFill; //Fill as much as is available in order[i]\r\n            }\r\n\r\n            totalFilled = totalFilled.add(filled);\r\n            orders[i].filled = orders[i].filled.add(filled);\r\n            uint cost = filled.mul(orders[i].price);\r\n            \r\n            //Execute the trade & shift balances between buyer/seller\r\n\r\n            if(side == Side.BUY){\r\n                //Verify that the buyer has enough ETH to cover the purchase\r\n                require(balances[msg.sender][\"ETH\"] >= cost);\r\n               \r\n                //msg.sender is the Buyer\r\n                balances[msg.sender][ticker] = balances[msg.sender][ticker].add(filled);\r\n                balances[msg.sender][\"ETH\"] = balances[msg.sender][\"ETH\"].sub(cost);\r\n\r\n                //Transfer ETH from Buyer to Seller\r\n                //Transfer Tokens from Seller to Buyer\r\n                balances[orders[i].trader][ticker] = balances[orders[i].trader][ticker].sub(filled);\r\n                balances[orders[i].trader][\"ETH\"] = balances[orders[i].trader][\"ETH\"].add(cost);\r\n            }\r\n            else if(side == Side.SELL) {\r\n                //msg.sender is Seller\r\n                balances[msg.sender][ticker] = balances[msg.sender][ticker].sub(filled);\r\n                balances[msg.sender][\"ETH\"] = balances[msg.sender][\"ETH\"].add(cost);\r\n\r\n                //Transfer ETH from Buyer to Seller\r\n                //Transfer tokens from Seller to Buyer\r\n                balances[orders[i].trader][ticker] = balances[orders[i].trader][ticker].add(filled);\r\n                balances[orders[i].trader][\"ETH\"] = balances[orders[i].trader][\"ETH\"].sub(cost);\r\n                \r\n            }\r\n        }\r\n        //Remove 100% filled orders from the orderbook\r\n\r\n        while(orders.length > 0 && orders[0].filled == orders[0].amount){\r\n            //Remove the top element in the order array by overwriting every element\r\n            // with the next element in the order list\r\n            for (uint256 i = 0; i < orders.length - 1; i++) {\r\n                orders[i] = orders[i + 1];\r\n            }\r\n            orders.pop();\r\n        }\r\n\r\n    }\r\n\r\n    //Loop through the orderbook and remove 100% filled orders\r\n}",
  "sourcePath": "C:/Users/Ishoboy43/Documents/Ivan on Tech Academy/ethereumSmartContractProgramming201NEW/dex/contracts/dex.sol",
  "compiler": {
    "name": "solc",
    "version": "0.8.4+commit.c7e474f2.Emscripten.clang"
  },
  "schemaVersion": "3.3.4",
  "updatedAt": "2021-05-26T17:53:51.927Z",
  "devdoc": {
    "kind": "dev",
    "methods": {
      "owner()": {
        "details": "Returns the address of the current owner."
      },
      "renounceOwnership()": {
        "details": "Leaves the contract without owner. It will not be possible to call `onlyOwner` functions anymore. Can only be called by the current owner. NOTE: Renouncing ownership will leave the contract without an owner, thereby removing any functionality that is only available to the owner."
      },
      "transferOwnership(address)": {
        "details": "Transfers ownership of the contract to a new account (`newOwner`). Can only be called by the current owner."
      }
    },
    "version": 1
  },
  "userdoc": {
    "kind": "user",
    "methods": {},
    "version": 1
  }
}